{
  "_format": "hh-sol-artifact-1",
  "contractName": "Lock",
  "sourceName": "contracts/Lock.sol",
  "abi": [
    {
      "constant": false,
      "inputs": [
        {
          "name": "_address",
          "type": "address"
        }
      ],
      "name": "RevokePermission",
      "outputs": [
        {
          "name": "success",
          "type": "bool"
        }
      ],
      "payable": false,
      "stateMutability": "nonpayable",
      "type": "function"
    },
    {
      "constant": true,
      "inputs": [
        {
          "name": "",
          "type": "uint256"
        }
      ],
      "name": "doctorList",
      "outputs": [
        {
          "name": "",
          "type": "address"
        }
      ],
      "payable": false,
      "stateMutability": "view",
      "type": "function"
    },
    {
      "constant": true,
      "inputs": [],
      "name": "getPatients",
      "outputs": [
        {
          "name": "",
          "type": "address[]"
        }
      ],
      "payable": false,
      "stateMutability": "view",
      "type": "function"
    },
    {
      "constant": false,
      "inputs": [
        {
          "name": "_addr",
          "type": "address"
        },
        {
          "name": "_date",
          "type": "string"
        },
        {
          "name": "_time",
          "type": "string"
        },
        {
          "name": "_diagnosis",
          "type": "string"
        },
        {
          "name": "_prescription",
          "type": "string"
        },
        {
          "name": "_description",
          "type": "string"
        },
        {
          "name": "_status",
          "type": "string"
        }
      ],
      "name": "setAppointment",
      "outputs": [],
      "payable": false,
      "stateMutability": "nonpayable",
      "type": "function"
    },
    {
      "constant": true,
      "inputs": [],
      "name": "getPermissionGrantedCount",
      "outputs": [
        {
          "name": "",
          "type": "uint256"
        }
      ],
      "payable": false,
      "stateMutability": "view",
      "type": "function"
    },
    {
      "constant": false,
      "inputs": [
        {
          "name": "_addr",
          "type": "address"
        },
        {
          "name": "_date",
          "type": "string"
        },
        {
          "name": "_time",
          "type": "string"
        },
        {
          "name": "_diagnosis",
          "type": "string"
        },
        {
          "name": "_prescription",
          "type": "string"
        },
        {
          "name": "_description",
          "type": "string"
        },
        {
          "name": "_status",
          "type": "string"
        }
      ],
      "name": "updateAppointment",
      "outputs": [],
      "payable": false,
      "stateMutability": "nonpayable",
      "type": "function"
    },
    {
      "constant": true,
      "inputs": [],
      "name": "getAppointmentCount",
      "outputs": [
        {
          "name": "",
          "type": "uint256"
        }
      ],
      "payable": false,
      "stateMutability": "view",
      "type": "function"
    },
    {
      "constant": true,
      "inputs": [
        {
          "name": "_address",
          "type": "address"
        }
      ],
      "name": "searchPatientMedical",
      "outputs": [
        {
          "name": "",
          "type": "string"
        },
        {
          "name": "",
          "type": "string"
        },
        {
          "name": "",
          "type": "string"
        },
        {
          "name": "",
          "type": "string"
        },
        {
          "name": "",
          "type": "string"
        },
        {
          "name": "",
          "type": "string"
        }
      ],
      "payable": false,
      "stateMutability": "view",
      "type": "function"
    },
    {
      "constant": true,
      "inputs": [
        {
          "name": "_address",
          "type": "address"
        }
      ],
      "name": "searchPatientDemographic",
      "outputs": [
        {
          "name": "",
          "type": "string"
        },
        {
          "name": "",
          "type": "string"
        },
        {
          "name": "",
          "type": "string"
        },
        {
          "name": "",
          "type": "string"
        },
        {
          "name": "",
          "type": "string"
        },
        {
          "name": "",
          "type": "string"
        },
        {
          "name": "",
          "type": "string"
        }
      ],
      "payable": false,
      "stateMutability": "view",
      "type": "function"
    },
    {
      "constant": false,
      "inputs": [
        {
          "name": "_address",
          "type": "address"
        }
      ],
      "name": "givePermission",
      "outputs": [
        {
          "name": "success",
          "type": "bool"
        }
      ],
      "payable": false,
      "stateMutability": "nonpayable",
      "type": "function"
    },
    {
      "constant": true,
      "inputs": [
        {
          "name": "_address",
          "type": "address"
        }
      ],
      "name": "searchAppointmentDate",
      "outputs": [
        {
          "name": "",
          "type": "uint256"
        }
      ],
      "payable": false,
      "stateMutability": "view",
      "type": "function"
    },
    {
      "constant": true,
      "inputs": [
        {
          "name": "_address",
          "type": "address"
        }
      ],
      "name": "searchDoctorDate",
      "outputs": [
        {
          "name": "",
          "type": "uint256"
        }
      ],
      "payable": false,
      "stateMutability": "view",
      "type": "function"
    },
    {
      "constant": true,
      "inputs": [],
      "name": "doctorCount",
      "outputs": [
        {
          "name": "",
          "type": "uint256"
        }
      ],
      "payable": false,
      "stateMutability": "view",
      "type": "function"
    },
    {
      "constant": true,
      "inputs": [],
      "name": "getDoctorCount",
      "outputs": [
        {
          "name": "",
          "type": "uint256"
        }
      ],
      "payable": false,
      "stateMutability": "view",
      "type": "function"
    },
    {
      "constant": false,
      "inputs": [
        {
          "name": "_ic",
          "type": "string"
        },
        {
          "name": "_name",
          "type": "string"
        },
        {
          "name": "_phone",
          "type": "string"
        },
        {
          "name": "_gender",
          "type": "string"
        },
        {
          "name": "_dob",
          "type": "string"
        },
        {
          "name": "_height",
          "type": "string"
        },
        {
          "name": "_weight",
          "type": "string"
        },
        {
          "name": "_houseaddr",
          "type": "string"
        },
        {
          "name": "_bloodgroup",
          "type": "string"
        },
        {
          "name": "_allergies",
          "type": "string"
        },
        {
          "name": "_medication",
          "type": "string"
        }
      ],
      "name": "setDetails",
      "outputs": [],
      "payable": false,
      "stateMutability": "nonpayable",
      "type": "function"
    },
    {
      "constant": false,
      "inputs": [
        {
          "name": "_ic",
          "type": "string"
        },
        {
          "name": "_name",
          "type": "string"
        },
        {
          "name": "_phone",
          "type": "string"
        },
        {
          "name": "_gender",
          "type": "string"
        },
        {
          "name": "_dob",
          "type": "string"
        },
        {
          "name": "_qualification",
          "type": "string"
        },
        {
          "name": "_major",
          "type": "string"
        }
      ],
      "name": "setDoctor",
      "outputs": [],
      "payable": false,
      "stateMutability": "nonpayable",
      "type": "function"
    },
    {
      "constant": true,
      "inputs": [],
      "name": "owner",
      "outputs": [
        {
          "name": "",
          "type": "address"
        }
      ],
      "payable": false,
      "stateMutability": "view",
      "type": "function"
    },
    {
      "constant": true,
      "inputs": [
        {
          "name": "_address",
          "type": "address"
        }
      ],
      "name": "searchAppointment",
      "outputs": [
        {
          "name": "",
          "type": "address"
        },
        {
          "name": "",
          "type": "string"
        },
        {
          "name": "",
          "type": "string"
        },
        {
          "name": "",
          "type": "string"
        },
        {
          "name": "",
          "type": "string"
        },
        {
          "name": "",
          "type": "string"
        },
        {
          "name": "",
          "type": "string"
        },
        {
          "name": "",
          "type": "string"
        }
      ],
      "payable": false,
      "stateMutability": "view",
      "type": "function"
    },
    {
      "constant": true,
      "inputs": [],
      "name": "getAppointments",
      "outputs": [
        {
          "name": "",
          "type": "address[]"
        }
      ],
      "payable": false,
      "stateMutability": "view",
      "type": "function"
    },
    {
      "constant": true,
      "inputs": [],
      "name": "patientCount",
      "outputs": [
        {
          "name": "",
          "type": "uint256"
        }
      ],
      "payable": false,
      "stateMutability": "view",
      "type": "function"
    },
    {
      "constant": false,
      "inputs": [
        {
          "name": "_ic",
          "type": "string"
        },
        {
          "name": "_name",
          "type": "string"
        },
        {
          "name": "_phone",
          "type": "string"
        },
        {
          "name": "_gender",
          "type": "string"
        },
        {
          "name": "_dob",
          "type": "string"
        },
        {
          "name": "_qualification",
          "type": "string"
        },
        {
          "name": "_major",
          "type": "string"
        }
      ],
      "name": "editDoctor",
      "outputs": [],
      "payable": false,
      "stateMutability": "nonpayable",
      "type": "function"
    },
    {
      "constant": true,
      "inputs": [],
      "name": "getDoctors",
      "outputs": [
        {
          "name": "",
          "type": "address[]"
        }
      ],
      "payable": false,
      "stateMutability": "view",
      "type": "function"
    },
    {
      "constant": false,
      "inputs": [
        {
          "name": "_ic",
          "type": "string"
        },
        {
          "name": "_name",
          "type": "string"
        },
        {
          "name": "_phone",
          "type": "string"
        },
        {
          "name": "_gender",
          "type": "string"
        },
        {
          "name": "_dob",
          "type": "string"
        },
        {
          "name": "_height",
          "type": "string"
        },
        {
          "name": "_weight",
          "type": "string"
        },
        {
          "name": "_houseaddr",
          "type": "string"
        },
        {
          "name": "_bloodgroup",
          "type": "string"
        },
        {
          "name": "_allergies",
          "type": "string"
        },
        {
          "name": "_medication",
          "type": "string"
        }
      ],
      "name": "editDetails",
      "outputs": [],
      "payable": false,
      "stateMutability": "nonpayable",
      "type": "function"
    },
    {
      "constant": true,
      "inputs": [
        {
          "name": "",
          "type": "uint256"
        }
      ],
      "name": "patientList",
      "outputs": [
        {
          "name": "",
          "type": "address"
        }
      ],
      "payable": false,
      "stateMutability": "view",
      "type": "function"
    },
    {
      "constant": true,
      "inputs": [
        {
          "name": "_address",
          "type": "address"
        }
      ],
      "name": "searchRecordDate",
      "outputs": [
        {
          "name": "",
          "type": "uint256"
        }
      ],
      "payable": false,
      "stateMutability": "view",
      "type": "function"
    },
    {
      "constant": true,
      "inputs": [],
      "name": "permissionGrantedCount",
      "outputs": [
        {
          "name": "",
          "type": "uint256"
        }
      ],
      "payable": false,
      "stateMutability": "view",
      "type": "function"
    },
    {
      "constant": true,
      "inputs": [],
      "name": "getPatientCount",
      "outputs": [
        {
          "name": "",
          "type": "uint256"
        }
      ],
      "payable": false,
      "stateMutability": "view",
      "type": "function"
    },
    {
      "constant": false,
      "inputs": [],
      "name": "Record",
      "outputs": [],
      "payable": false,
      "stateMutability": "nonpayable",
      "type": "function"
    },
    {
      "constant": true,
      "inputs": [
        {
          "name": "_address",
          "type": "address"
        }
      ],
      "name": "searchDoctor",
      "outputs": [
        {
          "name": "",
          "type": "string"
        },
        {
          "name": "",
          "type": "string"
        },
        {
          "name": "",
          "type": "string"
        },
        {
          "name": "",
          "type": "string"
        },
        {
          "name": "",
          "type": "string"
        },
        {
          "name": "",
          "type": "string"
        },
        {
          "name": "",
          "type": "string"
        }
      ],
      "payable": false,
      "stateMutability": "view",
      "type": "function"
    },
    {
      "constant": true,
      "inputs": [
        {
          "name": "",
          "type": "uint256"
        }
      ],
      "name": "appointmentList",
      "outputs": [
        {
          "name": "",
          "type": "address"
        }
      ],
      "payable": false,
      "stateMutability": "view",
      "type": "function"
    },
    {
      "constant": true,
      "inputs": [
        {
          "name": "_address",
          "type": "address"
        }
      ],
      "name": "getAppointmentPerPatient",
      "outputs": [
        {
          "name": "",
          "type": "uint256"
        }
      ],
      "payable": false,
      "stateMutability": "view",
      "type": "function"
    },
    {
      "constant": true,
      "inputs": [],
      "name": "appointmentCount",
      "outputs": [
        {
          "name": "",
          "type": "uint256"
        }
      ],
      "payable": false,
      "stateMutability": "view",
      "type": "function"
    }
  ],
  "bytecode": "0x60606040526000600b556000600c556000600d556000600e55341561002357600080fd5b614a4d806100326000396000f30060606040523615610194576000357c0100000000000000000000000000000000000000000000000000000000900463ffffffff16806302516abd14610199578063127ca4b4146101ea57806312ad1c371461024d578063245f9686146102b757806324c24b2b14610482578063261b73f3146104ab57806329e4afbb146106765780632a825ba01461069f5780633bc982801461096d5780633d391f7014610ca75780634c14b38d14610cf8578063625961fc14610d4557806378522bc414610d9257806379111c1c14610dbb57806380b76b2614610de45780638b945c6d146110df5780638da5cb5b146112ce578063920419821461132357806396b80d0814611690578063a0303c41146116fa578063a5aca8bc14611723578063b13d5d9414611912578063b6b477f31461197c578063babb1d4114611c77578063bd6f972b14611cda578063c0cb24ba14611d27578063c190665b14611d50578063c2be10dd14611d79578063caee6c8514611d8e578063e6fce0d2146120c8578063e93a15b91461212b578063eebc3fb214612178575b600080fd5b34156101a457600080fd5b6101d0600480803573ffffffffffffffffffffffffffffffffffffffff169060200190919050506121a1565b604051808215151515815260200191505060405180910390f35b34156101f557600080fd5b61020b6004808035906020019091905050612240565b604051808273ffffffffffffffffffffffffffffffffffffffff1673ffffffffffffffffffffffffffffffffffffffff16815260200191505060405180910390f35b341561025857600080fd5b61026061227f565b6040518080602001828103825283818151815260200191508051906020019060200280838360005b838110156102a3578082015181840152602081019050610288565b505050509050019250505060405180910390f35b34156102c257600080fd5b610480600480803573ffffffffffffffffffffffffffffffffffffffff1690602001909190803590602001908201803590602001908080601f0160208091040260200160405190810160405280939291908181526020018383808284378201915050505050509190803590602001908201803590602001908080601f0160208091040260200160405190810160405280939291908181526020018383808284378201915050505050509190803590602001908201803590602001908080601f0160208091040260200160405190810160405280939291908181526020018383808284378201915050505050509190803590602001908201803590602001908080601f0160208091040260200160405190810160405280939291908181526020018383808284378201915050505050509190803590602001908201803590602001908080601f0160208091040260200160405190810160405280939291908181526020018383808284378201915050505050509190803590602001908201803590602001908080601f01602080910402602001604051908101604052809392919081815260200183838082843782019150505050505091905050612313565b005b341561048d57600080fd5b6104956125a1565b6040518082815260200191505060405180910390f35b34156104b657600080fd5b610674600480803573ffffffffffffffffffffffffffffffffffffffff1690602001909190803590602001908201803590602001908080601f0160208091040260200160405190810160405280939291908181526020018383808284378201915050505050509190803590602001908201803590602001908080601f0160208091040260200160405190810160405280939291908181526020018383808284378201915050505050509190803590602001908201803590602001908080601f0160208091040260200160405190810160405280939291908181526020018383808284378201915050505050509190803590602001908201803590602001908080601f0160208091040260200160405190810160405280939291908181526020018383808284378201915050505050509190803590602001908201803590602001908080601f0160208091040260200160405190810160405280939291908181526020018383808284378201915050505050509190803590602001908201803590602001908080601f016020809104026020016040519081016040528093929190818152602001838380828437820191505050505050919050506125ab565b005b341561068157600080fd5b61068961276c565b6040518082815260200191505060405180910390f35b34156106aa57600080fd5b6106d6600480803573ffffffffffffffffffffffffffffffffffffffff16906020019091905050612776565b6040518080602001806020018060200180602001806020018060200187810387528d818151815260200191508051906020019080838360005b8381101561072a57808201518184015260208101905061070f565b50505050905090810190601f1680156107575780820380516001836020036101000a031916815260200191505b5087810386528c818151815260200191508051906020019080838360005b83811015610790578082015181840152602081019050610775565b50505050905090810190601f1680156107bd5780820380516001836020036101000a031916815260200191505b5087810385528b818151815260200191508051906020019080838360005b838110156107f65780820151818401526020810190506107db565b50505050905090810190601f1680156108235780820380516001836020036101000a031916815260200191505b5087810384528a818151815260200191508051906020019080838360005b8381101561085c578082015181840152602081019050610841565b50505050905090810190601f1680156108895780820380516001836020036101000a031916815260200191505b50878103835289818151815260200191508051906020019080838360005b838110156108c25780820151818401526020810190506108a7565b50505050905090810190601f1680156108ef5780820380516001836020036101000a031916815260200191505b50878103825288818151815260200191508051906020019080838360005b8381101561092857808201518184015260208101905061090d565b50505050905090810190601f1680156109555780820380516001836020036101000a031916815260200191505b509c5050505050505050505050505060405180910390f35b341561097857600080fd5b6109a4600480803573ffffffffffffffffffffffffffffffffffffffff16906020019091905050612b36565b604051808060200180602001806020018060200180602001806020018060200188810388528f818151815260200191508051906020019080838360005b838110156109fc5780820151818401526020810190506109e1565b50505050905090810190601f168015610a295780820380516001836020036101000a031916815260200191505b5088810387528e818151815260200191508051906020019080838360005b83811015610a62578082015181840152602081019050610a47565b50505050905090810190601f168015610a8f5780820380516001836020036101000a031916815260200191505b5088810386528d818151815260200191508051906020019080838360005b83811015610ac8578082015181840152602081019050610aad565b50505050905090810190601f168015610af55780820380516001836020036101000a031916815260200191505b5088810385528c818151815260200191508051906020019080838360005b83811015610b2e578082015181840152602081019050610b13565b50505050905090810190601f168015610b5b5780820380516001836020036101000a031916815260200191505b5088810384528b818151815260200191508051906020019080838360005b83811015610b94578082015181840152602081019050610b79565b50505050905090810190601f168015610bc15780820380516001836020036101000a031916815260200191505b5088810383528a818151815260200191508051906020019080838360005b83811015610bfa578082015181840152602081019050610bdf565b50505050905090810190601f168015610c275780820380516001836020036101000a031916815260200191505b50888103825289818151815260200191508051906020019080838360005b83811015610c60578082015181840152602081019050610c45565b50505050905090810190601f168015610c8d5780820380516001836020036101000a031916815260200191505b509e50505050505050505050505050505060405180910390f35b3415610cb257600080fd5b610cde600480803573ffffffffffffffffffffffffffffffffffffffff169060200190919050506130c0565b604051808215151515815260200191505060405180910390f35b3415610d0357600080fd5b610d2f600480803573ffffffffffffffffffffffffffffffffffffffff16906020019091905050613172565b6040518082815260200191505060405180910390f35b3415610d5057600080fd5b610d7c600480803573ffffffffffffffffffffffffffffffffffffffff169060200190919050506131c3565b6040518082815260200191505060405180910390f35b3415610d9d57600080fd5b610da5613214565b6040518082815260200191505060405180910390f35b3415610dc657600080fd5b610dce61321a565b6040518082815260200191505060405180910390f35b3415610def57600080fd5b6110dd600480803590602001908201803590602001908080601f0160208091040260200160405190810160405280939291908181526020018383808284378201915050505050509190803590602001908201803590602001908080601f0160208091040260200160405190810160405280939291908181526020018383808284378201915050505050509190803590602001908201803590602001908080601f0160208091040260200160405190810160405280939291908181526020018383808284378201915050505050509190803590602001908201803590602001908080601f0160208091040260200160405190810160405280939291908181526020018383808284378201915050505050509190803590602001908201803590602001908080601f0160208091040260200160405190810160405280939291908181526020018383808284378201915050505050509190803590602001908201803590602001908080601f0160208091040260200160405190810160405280939291908181526020018383808284378201915050505050509190803590602001908201803590602001908080601f0160208091040260200160405190810160405280939291908181526020018383808284378201915050505050509190803590602001908201803590602001908080601f0160208091040260200160405190810160405280939291908181526020018383808284378201915050505050509190803590602001908201803590602001908080601f0160208091040260200160405190810160405280939291908181526020018383808284378201915050505050509190803590602001908201803590602001908080601f0160208091040260200160405190810160405280939291908181526020018383808284378201915050505050509190803590602001908201803590602001908080601f01602080910402602001604051908101604052809392919081815260200183838082843782019150505050505091905050613224565b005b34156110ea57600080fd5b6112cc600480803590602001908201803590602001908080601f0160208091040260200160405190810160405280939291908181526020018383808284378201915050505050509190803590602001908201803590602001908080601f0160208091040260200160405190810160405280939291908181526020018383808284378201915050505050509190803590602001908201803590602001908080601f0160208091040260200160405190810160405280939291908181526020018383808284378201915050505050509190803590602001908201803590602001908080601f0160208091040260200160405190810160405280939291908181526020018383808284378201915050505050509190803590602001908201803590602001908080601f0160208091040260200160405190810160405280939291908181526020018383808284378201915050505050509190803590602001908201803590602001908080601f0160208091040260200160405190810160405280939291908181526020018383808284378201915050505050509190803590602001908201803590602001908080601f0160208091040260200160405190810160405280939291908181526020018383808284378201915050505050509190505061358f565b005b34156112d957600080fd5b6112e16137fd565b604051808273ffffffffffffffffffffffffffffffffffffffff1673ffffffffffffffffffffffffffffffffffffffff16815260200191505060405180910390f35b341561132e57600080fd5b61135a600480803573ffffffffffffffffffffffffffffffffffffffff16906020019091905050613822565b604051808973ffffffffffffffffffffffffffffffffffffffff1673ffffffffffffffffffffffffffffffffffffffff1681526020018060200180602001806020018060200180602001806020018060200188810388528f818151815260200191508051906020019080838360005b838110156113e45780820151818401526020810190506113c9565b50505050905090810190601f1680156114115780820380516001836020036101000a031916815260200191505b5088810387528e818151815260200191508051906020019080838360005b8381101561144a57808201518184015260208101905061142f565b50505050905090810190601f1680156114775780820380516001836020036101000a031916815260200191505b5088810386528d818151815260200191508051906020019080838360005b838110156114b0578082015181840152602081019050611495565b50505050905090810190601f1680156114dd5780820380516001836020036101000a031916815260200191505b5088810385528c818151815260200191508051906020019080838360005b838110156115165780820151818401526020810190506114fb565b50505050905090810190601f1680156115435780820380516001836020036101000a031916815260200191505b5088810384528b818151815260200191508051906020019080838360005b8381101561157c578082015181840152602081019050611561565b50505050905090810190601f1680156115a95780820380516001836020036101000a031916815260200191505b5088810383528a818151815260200191508051906020019080838360005b838110156115e25780820151818401526020810190506115c7565b50505050905090810190601f16801561160f5780820380516001836020036101000a031916815260200191505b50888103825289818151815260200191508051906020019080838360005b8381101561164857808201518184015260208101905061162d565b50505050905090810190601f1680156116755780820380516001836020036101000a031916815260200191505b509f5050505050505050505050505050505060405180910390f35b341561169b57600080fd5b6116a3613da7565b6040518080602001828103825283818151815260200191508051906020019060200280838360005b838110156116e65780820151818401526020810190506116cb565b505050509050019250505060405180910390f35b341561170557600080fd5b61170d613e3b565b6040518082815260200191505060405180910390f35b341561172e57600080fd5b611910600480803590602001908201803590602001908080601f0160208091040260200160405190810160405280939291908181526020018383808284378201915050505050509190803590602001908201803590602001908080601f0160208091040260200160405190810160405280939291908181526020018383808284378201915050505050509190803590602001908201803590602001908080601f0160208091040260200160405190810160405280939291908181526020018383808284378201915050505050509190803590602001908201803590602001908080601f0160208091040260200160405190810160405280939291908181526020018383808284378201915050505050509190803590602001908201803590602001908080601f0160208091040260200160405190810160405280939291908181526020018383808284378201915050505050509190803590602001908201803590602001908080601f0160208091040260200160405190810160405280939291908181526020018383808284378201915050505050509190803590602001908201803590602001908080601f01602080910402602001604051908101604052809392919081815260200183838082843782019150505050505091905050613e41565b005b341561191d57600080fd5b611925613fd8565b6040518080602001828103825283818151815260200191508051906020019060200280838360005b8381101561196857808201518184015260208101905061194d565b505050509050019250505060405180910390f35b341561198757600080fd5b611c75600480803590602001908201803590602001908080601f0160208091040260200160405190810160405280939291908181526020018383808284378201915050505050509190803590602001908201803590602001908080601f0160208091040260200160405190810160405280939291908181526020018383808284378201915050505050509190803590602001908201803590602001908080601f0160208091040260200160405190810160405280939291908181526020018383808284378201915050505050509190803590602001908201803590602001908080601f0160208091040260200160405190810160405280939291908181526020018383808284378201915050505050509190803590602001908201803590602001908080601f0160208091040260200160405190810160405280939291908181526020018383808284378201915050505050509190803590602001908201803590602001908080601f0160208091040260200160405190810160405280939291908181526020018383808284378201915050505050509190803590602001908201803590602001908080601f0160208091040260200160405190810160405280939291908181526020018383808284378201915050505050509190803590602001908201803590602001908080601f0160208091040260200160405190810160405280939291908181526020018383808284378201915050505050509190803590602001908201803590602001908080601f0160208091040260200160405190810160405280939291908181526020018383808284378201915050505050509190803590602001908201803590602001908080601f0160208091040260200160405190810160405280939291908181526020018383808284378201915050505050509190803590602001908201803590602001908080601f0160208091040260200160405190810160405280939291908181526020018383808284378201915050505050509190505061406c565b005b3415611c8257600080fd5b611c98600480803590602001909190505061426b565b604051808273ffffffffffffffffffffffffffffffffffffffff1673ffffffffffffffffffffffffffffffffffffffff16815260200191505060405180910390f35b3415611ce557600080fd5b611d11600480803573ffffffffffffffffffffffffffffffffffffffff169060200190919050506142aa565b6040518082815260200191505060405180910390f35b3415611d3257600080fd5b611d3a6142fb565b6040518082815260200191505060405180910390f35b3415611d5b57600080fd5b611d63614301565b6040518082815260200191505060405180910390f35b3415611d8457600080fd5b611d8c61430b565b005b3415611d9957600080fd5b611dc5600480803573ffffffffffffffffffffffffffffffffffffffff1690602001909190505061434d565b604051808060200180602001806020018060200180602001806020018060200188810388528f818151815260200191508051906020019080838360005b83811015611e1d578082015181840152602081019050611e02565b50505050905090810190601f168015611e4a5780820380516001836020036101000a031916815260200191505b5088810387528e818151815260200191508051906020019080838360005b83811015611e83578082015181840152602081019050611e68565b50505050905090810190601f168015611eb05780820380516001836020036101000a031916815260200191505b5088810386528d818151815260200191508051906020019080838360005b83811015611ee9578082015181840152602081019050611ece565b50505050905090810190601f168015611f165780820380516001836020036101000a031916815260200191505b5088810385528c818151815260200191508051906020019080838360005b83811015611f4f578082015181840152602081019050611f34565b50505050905090810190601f168015611f7c5780820380516001836020036101000a031916815260200191505b5088810384528b818151815260200191508051906020019080838360005b83811015611fb5578082015181840152602081019050611f9a565b50505050905090810190601f168015611fe25780820380516001836020036101000a031916815260200191505b5088810383528a818151815260200191508051906020019080838360005b8381101561201b578082015181840152602081019050612000565b50505050905090810190601f1680156120485780820380516001836020036101000a031916815260200191505b50888103825289818151815260200191508051906020019080838360005b83811015612081578082015181840152602081019050612066565b50505050905090810190601f1680156120ae5780820380516001836020036101000a031916815260200191505b509e50505050505050505050505050505060405180910390f35b34156120d357600080fd5b6120e9600480803590602001909190505061489a565b604051808273ffffffffffffffffffffffffffffffffffffffff1673ffffffffffffffffffffffffffffffffffffffff16815260200191505060405180910390f35b341561213657600080fd5b612162600480803573ffffffffffffffffffffffffffffffffffffffff169060200190919050506148d9565b6040518082815260200191505060405180910390f35b341561218357600080fd5b61218b614922565b6040518082815260200191505060405180910390f35b600080600760003373ffffffffffffffffffffffffffffffffffffffff1673ffffffffffffffffffffffffffffffffffffffff16815260200190815260200160002060008473ffffffffffffffffffffffffffffffffffffffff1673ffffffffffffffffffffffffffffffffffffffff16815260200190815260200160002060006101000a81548160ff02191690831515021790555060019050919050565b60028181548110151561224f57fe5b90600052602060002090016000915054906101000a900473ffffffffffffffffffffffffffffffffffffffff1681565b612287614928565b600180548060200260200160405190810160405280929190818152602001828054801561230957602002820191906000526020600020905b8160009054906101000a900473ffffffffffffffffffffffffffffffffffffffff1673ffffffffffffffffffffffffffffffffffffffff16815260200190600101908083116122bf575b5050505050905090565b6000600960003373ffffffffffffffffffffffffffffffffffffffff1673ffffffffffffffffffffffffffffffffffffffff16815260200190815260200160002060009054906101000a900460ff16151561236d57600080fd5b600660008973ffffffffffffffffffffffffffffffffffffffff1673ffffffffffffffffffffffffffffffffffffffff1681526020019081526020016000209050338160000160006101000a81548173ffffffffffffffffffffffffffffffffffffffff021916908373ffffffffffffffffffffffffffffffffffffffff160217905550878160010160006101000a81548173ffffffffffffffffffffffffffffffffffffffff021916908373ffffffffffffffffffffffffffffffffffffffff1602179055508681600201908051906020019061244c92919061493c565b508581600301908051906020019061246592919061493c565b508481600601908051906020019061247e92919061493c565b508381600401908051906020019061249792919061493c565b50828160050190805190602001906124b092919061493c565b50818160070190805190602001906124c992919061493c565b50428160080181905550600380548060010182816124e791906149bc565b916000526020600020900160008a909190916101000a81548173ffffffffffffffffffffffffffffffffffffffff021916908373ffffffffffffffffffffffffffffffffffffffff16021790555050600d60008154809291906001019190505550600a60008973ffffffffffffffffffffffffffffffffffffffff1673ffffffffffffffffffffffffffffffffffffffff168152602001908152602001600020600081548092919060010191905055505050505050505050565b6000600e54905090565b6000600960003373ffffffffffffffffffffffffffffffffffffffff1673ffffffffffffffffffffffffffffffffffffffff16815260200190815260200160002060009054906101000a900460ff16151561260557600080fd5b600660008973ffffffffffffffffffffffffffffffffffffffff1673ffffffffffffffffffffffffffffffffffffffff1681526020019081526020016000209050338160000160006101000a81548173ffffffffffffffffffffffffffffffffffffffff021916908373ffffffffffffffffffffffffffffffffffffffff160217905550878160010160006101000a81548173ffffffffffffffffffffffffffffffffffffffff021916908373ffffffffffffffffffffffffffffffffffffffff160217905550868160020190805190602001906126e492919061493c565b50858160030190805190602001906126fd92919061493c565b508481600601908051906020019061271692919061493c565b508381600401908051906020019061272f92919061493c565b508281600501908051906020019061274892919061493c565b508181600701908051906020019061276192919061493c565b505050505050505050565b6000600d54905090565b61277e6149e8565b6127866149e8565b61278e6149e8565b6127966149e8565b61279e6149e8565b6127a66149e8565b6000600760008973ffffffffffffffffffffffffffffffffffffffff1673ffffffffffffffffffffffffffffffffffffffff16815260200190815260200160002060003373ffffffffffffffffffffffffffffffffffffffff1673ffffffffffffffffffffffffffffffffffffffff16815260200190815260200160002060009054906101000a900460ff16151561283d57600080fd5b600460008973ffffffffffffffffffffffffffffffffffffffff1673ffffffffffffffffffffffffffffffffffffffff168152602001908152602001600020905080600701816008018260090183600a01838054600181600116156101000203166002900480601f0160208091040260200160405190810160405280929190818152602001828054600181600116156101000203166002900480156129235780601f106128f857610100808354040283529160200191612923565b820191906000526020600020905b81548152906001019060200180831161290657829003601f168201915b50505050509350828054600181600116156101000203166002900480601f0160208091040260200160405190810160405280929190818152602001828054600181600116156101000203166002900480156129bf5780601f10612994576101008083540402835291602001916129bf565b820191906000526020600020905b8154815290600101906020018083116129a257829003601f168201915b50505050509250818054600181600116156101000203166002900480601f016020809104026020016040519081016040528092919081815260200182805460018160011615610100020316600290048015612a5b5780601f10612a3057610100808354040283529160200191612a5b565b820191906000526020600020905b815481529060010190602001808311612a3e57829003601f168201915b50505050509150808054600181600116156101000203166002900480601f016020809104026020016040519081016040528092919081815260200182805460018160011615610100020316600290048015612af75780601f10612acc57610100808354040283529160200191612af7565b820191906000526020600020905b815481529060010190602001808311612ada57829003601f168201915b50505050509050602060405190810160405280600081525060206040519081016040528060008152509650965096509650965096505091939550919395565b612b3e6149e8565b612b466149e8565b612b4e6149e8565b612b566149e8565b612b5e6149e8565b612b666149e8565b612b6e6149e8565b6000600760008a73ffffffffffffffffffffffffffffffffffffffff1673ffffffffffffffffffffffffffffffffffffffff16815260200190815260200160002060003373ffffffffffffffffffffffffffffffffffffffff1673ffffffffffffffffffffffffffffffffffffffff16815260200190815260200160002060009054906101000a900460ff161515612c0557600080fd5b600460008a73ffffffffffffffffffffffffffffffffffffffff1673ffffffffffffffffffffffffffffffffffffffff168152602001908152602001600020905080600001816001018260020183600301846004018560050186600601868054600181600116156101000203166002900480601f016020809104026020016040519081016040528092919081815260200182805460018160011615610100020316600290048015612cf75780601f10612ccc57610100808354040283529160200191612cf7565b820191906000526020600020905b815481529060010190602001808311612cda57829003601f168201915b50505050509650858054600181600116156101000203166002900480601f016020809104026020016040519081016040528092919081815260200182805460018160011615610100020316600290048015612d935780601f10612d6857610100808354040283529160200191612d93565b820191906000526020600020905b815481529060010190602001808311612d7657829003601f168201915b50505050509550848054600181600116156101000203166002900480601f016020809104026020016040519081016040528092919081815260200182805460018160011615610100020316600290048015612e2f5780601f10612e0457610100808354040283529160200191612e2f565b820191906000526020600020905b815481529060010190602001808311612e1257829003601f168201915b50505050509450838054600181600116156101000203166002900480601f016020809104026020016040519081016040528092919081815260200182805460018160011615610100020316600290048015612ecb5780601f10612ea057610100808354040283529160200191612ecb565b820191906000526020600020905b815481529060010190602001808311612eae57829003601f168201915b50505050509350828054600181600116156101000203166002900480601f016020809104026020016040519081016040528092919081815260200182805460018160011615610100020316600290048015612f675780601f10612f3c57610100808354040283529160200191612f67565b820191906000526020600020905b815481529060010190602001808311612f4a57829003601f168201915b50505050509250818054600181600116156101000203166002900480601f0160208091040260200160405190810160405280929190818152602001828054600181600116156101000203166002900480156130035780601f10612fd857610100808354040283529160200191613003565b820191906000526020600020905b815481529060010190602001808311612fe657829003601f168201915b50505050509150808054600181600116156101000203166002900480601f01602080910402602001604051908101604052809291908181526020018280546001816001161561010002031660029004801561309f5780601f106130745761010080835404028352916020019161309f565b820191906000526020600020905b81548152906001019060200180831161308257829003601f168201915b50505050509050975097509750975097509750975050919395979092949650565b60006001600760003373ffffffffffffffffffffffffffffffffffffffff1673ffffffffffffffffffffffffffffffffffffffff16815260200190815260200160002060008473ffffffffffffffffffffffffffffffffffffffff1673ffffffffffffffffffffffffffffffffffffffff16815260200190815260200160002060006101000a81548160ff021916908315150217905550600e6000815480929190600101919050555060019050919050565b600080600660008473ffffffffffffffffffffffffffffffffffffffff1673ffffffffffffffffffffffffffffffffffffffff16815260200190815260200160002090508060080154915050919050565b600080600560008473ffffffffffffffffffffffffffffffffffffffff1673ffffffffffffffffffffffffffffffffffffffff16815260200190815260200160002090508060080154915050919050565b600c5481565b6000600c54905090565b6000600860003373ffffffffffffffffffffffffffffffffffffffff1673ffffffffffffffffffffffffffffffffffffffff16815260200190815260200160002060009054906101000a900460ff1615151561327f57600080fd5b600460003373ffffffffffffffffffffffffffffffffffffffff1673ffffffffffffffffffffffffffffffffffffffff16815260200190815260200160002090508b8160000190805190602001906132d892919061493c565b508a8160010190805190602001906132f192919061493c565b508981600201908051906020019061330a92919061493c565b508881600301908051906020019061332392919061493c565b508781600401908051906020019061333c92919061493c565b508681600501908051906020019061335592919061493c565b508581600601908051906020019061336e92919061493c565b508481600701908051906020019061338792919061493c565b50838160080190805190602001906133a092919061493c565b50828160090190805190602001906133b992919061493c565b508181600a0190805190602001906133d292919061493c565b503381600b0160006101000a81548173ffffffffffffffffffffffffffffffffffffffff021916908373ffffffffffffffffffffffffffffffffffffffff1602179055504281600c01819055506001805480600101828161343391906149bc565b9160005260206000209001600033909190916101000a81548173ffffffffffffffffffffffffffffffffffffffff021916908373ffffffffffffffffffffffffffffffffffffffff160217905550506001600860003373ffffffffffffffffffffffffffffffffffffffff1673ffffffffffffffffffffffffffffffffffffffff16815260200190815260200160002060006101000a81548160ff0219169083151502179055506001600760003373ffffffffffffffffffffffffffffffffffffffff1673ffffffffffffffffffffffffffffffffffffffff16815260200190815260200160002060003373ffffffffffffffffffffffffffffffffffffffff1673ffffffffffffffffffffffffffffffffffffffff16815260200190815260200160002060006101000a81548160ff021916908315150217905550600b60008154809291906001019190505550505050505050505050505050565b6000600960003373ffffffffffffffffffffffffffffffffffffffff1673ffffffffffffffffffffffffffffffffffffffff16815260200190815260200160002060009054906101000a900460ff161515156135ea57600080fd5b600560003373ffffffffffffffffffffffffffffffffffffffff1673ffffffffffffffffffffffffffffffffffffffff16815260200190815260200160002090508781600001908051906020019061364392919061493c565b508681600101908051906020019061365c92919061493c565b508581600201908051906020019061367592919061493c565b508481600301908051906020019061368e92919061493c565b50838160040190805190602001906136a792919061493c565b50828160050190805190602001906136c092919061493c565b50818160060190805190602001906136d992919061493c565b50338160070160006101000a81548173ffffffffffffffffffffffffffffffffffffffff021916908373ffffffffffffffffffffffffffffffffffffffff1602179055504281600801819055506002805480600101828161373a91906149bc565b9160005260206000209001600033909190916101000a81548173ffffffffffffffffffffffffffffffffffffffff021916908373ffffffffffffffffffffffffffffffffffffffff160217905550506001600960003373ffffffffffffffffffffffffffffffffffffffff1673ffffffffffffffffffffffffffffffffffffffff16815260200190815260200160002060006101000a81548160ff021916908315150217905550600c600081548092919060010191905055505050505050505050565b6000809054906101000a900473ffffffffffffffffffffffffffffffffffffffff1681565b600061382c6149e8565b6138346149e8565b61383c6149e8565b6138446149e8565b61384c6149e8565b6138546149e8565b61385c6149e8565b600080600660008c73ffffffffffffffffffffffffffffffffffffffff1673ffffffffffffffffffffffffffffffffffffffff1681526020019081526020016000209150600560008360000160009054906101000a900473ffffffffffffffffffffffffffffffffffffffff1673ffffffffffffffffffffffffffffffffffffffff1673ffffffffffffffffffffffffffffffffffffffff16815260200190815260200160002090508160000160009054906101000a900473ffffffffffffffffffffffffffffffffffffffff1681600101836002018460030185600601866004018760050188600701868054600181600116156101000203166002900480601f0160208091040260200160405190810160405280929190818152602001828054600181600116156101000203166002900480156139db5780601f106139b0576101008083540402835291602001916139db565b820191906000526020600020905b8154815290600101906020018083116139be57829003601f168201915b50505050509650858054600181600116156101000203166002900480601f016020809104026020016040519081016040528092919081815260200182805460018160011615610100020316600290048015613a775780601f10613a4c57610100808354040283529160200191613a77565b820191906000526020600020905b815481529060010190602001808311613a5a57829003601f168201915b50505050509550848054600181600116156101000203166002900480601f016020809104026020016040519081016040528092919081815260200182805460018160011615610100020316600290048015613b135780601f10613ae857610100808354040283529160200191613b13565b820191906000526020600020905b815481529060010190602001808311613af657829003601f168201915b50505050509450838054600181600116156101000203166002900480601f016020809104026020016040519081016040528092919081815260200182805460018160011615610100020316600290048015613baf5780601f10613b8457610100808354040283529160200191613baf565b820191906000526020600020905b815481529060010190602001808311613b9257829003601f168201915b50505050509350828054600181600116156101000203166002900480601f016020809104026020016040519081016040528092919081815260200182805460018160011615610100020316600290048015613c4b5780601f10613c2057610100808354040283529160200191613c4b565b820191906000526020600020905b815481529060010190602001808311613c2e57829003601f168201915b50505050509250818054600181600116156101000203166002900480601f016020809104026020016040519081016040528092919081815260200182805460018160011615610100020316600290048015613ce75780601f10613cbc57610100808354040283529160200191613ce7565b820191906000526020600020905b815481529060010190602001808311613cca57829003601f168201915b50505050509150808054600181600116156101000203166002900480601f016020809104026020016040519081016040528092919081815260200182805460018160011615610100020316600290048015613d835780601f10613d5857610100808354040283529160200191613d83565b820191906000526020600020905b815481529060010190602001808311613d6657829003601f168201915b50505050509050995099509950995099509950995099505050919395975091939597565b613daf614928565b6003805480602002602001604051908101604052809291908181526020018280548015613e3157602002820191906000526020600020905b8160009054906101000a900473ffffffffffffffffffffffffffffffffffffffff1673ffffffffffffffffffffffffffffffffffffffff1681526020019060010190808311613de7575b5050505050905090565b600b5481565b6000600960003373ffffffffffffffffffffffffffffffffffffffff1673ffffffffffffffffffffffffffffffffffffffff16815260200190815260200160002060009054906101000a900460ff161515613e9b57600080fd5b600560003373ffffffffffffffffffffffffffffffffffffffff1673ffffffffffffffffffffffffffffffffffffffff168152602001908152602001600020905087816000019080519060200190613ef492919061493c565b5086816001019080519060200190613f0d92919061493c565b5085816002019080519060200190613f2692919061493c565b5084816003019080519060200190613f3f92919061493c565b5083816004019080519060200190613f5892919061493c565b5082816005019080519060200190613f7192919061493c565b5081816006019080519060200190613f8a92919061493c565b50338160070160006101000a81548173ffffffffffffffffffffffffffffffffffffffff021916908373ffffffffffffffffffffffffffffffffffffffff1602179055505050505050505050565b613fe0614928565b600280548060200260200160405190810160405280929190818152602001828054801561406257602002820191906000526020600020905b8160009054906101000a900473ffffffffffffffffffffffffffffffffffffffff1673ffffffffffffffffffffffffffffffffffffffff1681526020019060010190808311614018575b5050505050905090565b6000600860003373ffffffffffffffffffffffffffffffffffffffff1673ffffffffffffffffffffffffffffffffffffffff16815260200190815260200160002060009054906101000a900460ff1615156140c657600080fd5b600460003373ffffffffffffffffffffffffffffffffffffffff1673ffffffffffffffffffffffffffffffffffffffff16815260200190815260200160002090508b81600001908051906020019061411f92919061493c565b508a81600101908051906020019061413892919061493c565b508981600201908051906020019061415192919061493c565b508881600301908051906020019061416a92919061493c565b508781600401908051906020019061418392919061493c565b508681600501908051906020019061419c92919061493c565b50858160060190805190602001906141b592919061493c565b50848160070190805190602001906141ce92919061493c565b50838160080190805190602001906141e792919061493c565b508281600901908051906020019061420092919061493c565b508181600a01908051906020019061421992919061493c565b503381600b0160006101000a81548173ffffffffffffffffffffffffffffffffffffffff021916908373ffffffffffffffffffffffffffffffffffffffff160217905550505050505050505050505050565b60018181548110151561427a57fe5b90600052602060002090016000915054906101000a900473ffffffffffffffffffffffffffffffffffffffff1681565b600080600460008473ffffffffffffffffffffffffffffffffffffffff1673ffffffffffffffffffffffffffffffffffffffff168152602001908152602001600020905080600c0154915050919050565b600e5481565b6000600b54905090565b336000806101000a81548173ffffffffffffffffffffffffffffffffffffffff021916908373ffffffffffffffffffffffffffffffffffffffff160217905550565b6143556149e8565b61435d6149e8565b6143656149e8565b61436d6149e8565b6143756149e8565b61437d6149e8565b6143856149e8565b6000600960008a73ffffffffffffffffffffffffffffffffffffffff1673ffffffffffffffffffffffffffffffffffffffff16815260200190815260200160002060009054906101000a900460ff1615156143df57600080fd5b600560008a73ffffffffffffffffffffffffffffffffffffffff1673ffffffffffffffffffffffffffffffffffffffff168152602001908152602001600020905080600001816001018260020183600301846004018560050186600601868054600181600116156101000203166002900480601f0160208091040260200160405190810160405280929190818152602001828054600181600116156101000203166002900480156144d15780601f106144a6576101008083540402835291602001916144d1565b820191906000526020600020905b8154815290600101906020018083116144b457829003601f168201915b50505050509650858054600181600116156101000203166002900480601f01602080910402602001604051908101604052809291908181526020018280546001816001161561010002031660029004801561456d5780601f106145425761010080835404028352916020019161456d565b820191906000526020600020905b81548152906001019060200180831161455057829003601f168201915b50505050509550848054600181600116156101000203166002900480601f0160208091040260200160405190810160405280929190818152602001828054600181600116156101000203166002900480156146095780601f106145de57610100808354040283529160200191614609565b820191906000526020600020905b8154815290600101906020018083116145ec57829003601f168201915b50505050509450838054600181600116156101000203166002900480601f0160208091040260200160405190810160405280929190818152602001828054600181600116156101000203166002900480156146a55780601f1061467a576101008083540402835291602001916146a5565b820191906000526020600020905b81548152906001019060200180831161468857829003601f168201915b50505050509350828054600181600116156101000203166002900480601f0160208091040260200160405190810160405280929190818152602001828054600181600116156101000203166002900480156147415780601f1061471657610100808354040283529160200191614741565b820191906000526020600020905b81548152906001019060200180831161472457829003601f168201915b50505050509250818054600181600116156101000203166002900480601f0160208091040260200160405190810160405280929190818152602001828054600181600116156101000203166002900480156147dd5780601f106147b2576101008083540402835291602001916147dd565b820191906000526020600020905b8154815290600101906020018083116147c057829003601f168201915b50505050509150808054600181600116156101000203166002900480601f0160208091040260200160405190810160405280929190818152602001828054600181600116156101000203166002900480156148795780601f1061484e57610100808354040283529160200191614879565b820191906000526020600020905b81548152906001019060200180831161485c57829003601f168201915b50505050509050975097509750975097509750975050919395979092949650565b6003818154811015156148a957fe5b90600052602060002090016000915054906101000a900473ffffffffffffffffffffffffffffffffffffffff1681565b6000600a60008373ffffffffffffffffffffffffffffffffffffffff1673ffffffffffffffffffffffffffffffffffffffff168152602001908152602001600020549050919050565b600d5481565b602060405190810160405280600081525090565b828054600181600116156101000203166002900490600052602060002090601f016020900481019282601f1061497d57805160ff19168380011785556149ab565b828001600101855582156149ab579182015b828111156149aa57825182559160200191906001019061498f565b5b5090506149b891906149fc565b5090565b8154818355818115116149e3578183600052602060002091820191016149e291906149fc565b5b505050565b602060405190810160405280600081525090565b614a1e91905b80821115614a1a576000816000905550600101614a02565b5090565b905600a165627a7a72305820156cd402870a1f6581b9e9019c03c47d52d3606029b5f62ea0842e329fc5ce120029",
  "linkReferences": {},
  "deployedLinkReferences": {}
}